{"contracts/RewardChain.sol":{"RewardChain":{"abi":[{"inputs":[{"internalType":"bytes32","name":"startOfStakeChain","type":"bytes32"}],"stateMutability":"nonpayable","type":"constructor"},{"anonymous":false,"inputs":[{"indexed":false,"internalType":"uint256","name":"amount","type":"uint256"},{"indexed":false,"internalType":"uint256","name":"totalRewards","type":"uint256"},{"indexed":false,"internalType":"uint256","name":"timestamp","type":"uint256"},{"indexed":false,"internalType":"bytes32","name":"previousRewardChain","type":"bytes32"},{"indexed":false,"internalType":"bytes32","name":"currentRewardChain","type":"bytes32"}],"name":"RewardsAdded","type":"event"},{"inputs":[],"name":"NULL_HASH","outputs":[{"internalType":"bytes32","name":"","type":"bytes32"}],"stateMutability":"view","type":"function"},{"inputs":[{"internalType":"uint256","name":"amount","type":"uint256"}],"name":"addRewards","outputs":[],"stateMutability":"nonpayable","type":"function"},{"inputs":[],"name":"beginningOfStakeChain","outputs":[{"internalType":"bytes32","name":"","type":"bytes32"}],"stateMutability":"view","type":"function"},{"inputs":[{"internalType":"uint256","name":"aggregateRewards","type":"uint256"},{"internalType":"uint256","name":"totalUserStake","type":"uint256"},{"internalType":"uint256","name":"totalStake","type":"uint256"},{"internalType":"bytes","name":"proof","type":"bytes"}],"name":"claimRewards","outputs":[],"stateMutability":"nonpayable","type":"function"},{"inputs":[],"name":"currentRewardChain","outputs":[{"internalType":"bytes32","name":"","type":"bytes32"}],"stateMutability":"view","type":"function"},{"inputs":[{"internalType":"address","name":"user","type":"address"},{"internalType":"bytes32","name":"userStakeChainSnapshot","type":"bytes32"},{"internalType":"bytes32","name":"currentStakeChainSnapshot","type":"bytes32"},{"internalType":"uint256","name":"stakeSnapshotTime","type":"uint256"}],"name":"relay","outputs":[],"stateMutability":"nonpayable","type":"function"},{"inputs":[],"name":"rewardBeginTime","outputs":[{"internalType":"uint256","name":"","type":"uint256"}],"stateMutability":"view","type":"function"},{"inputs":[{"internalType":"address","name":"","type":"address"}],"name":"rewards","outputs":[{"components":[{"internalType":"bytes32","name":"start","type":"bytes32"},{"internalType":"bytes32","name":"end","type":"bytes32"}],"internalType":"struct RewardChain.HashInterval","name":"stakeInterval","type":"tuple"},{"components":[{"internalType":"bytes32","name":"start","type":"bytes32"},{"internalType":"bytes32","name":"end","type":"bytes32"}],"internalType":"struct RewardChain.HashInterval","name":"rewardInterval","type":"tuple"},{"components":[{"internalType":"bytes32","name":"start","type":"bytes32"},{"internalType":"bytes32","name":"end","type":"bytes32"}],"internalType":"struct RewardChain.HashInterval","name":"userStakeInterval","type":"tuple"},{"internalType":"uint256","name":"rewardSnapshotTime","type":"uint256"},{"internalType":"uint256","name":"stakeSnapshotTime","type":"uint256"},{"internalType":"uint256","name":"rewardBeginTime","type":"uint256"},{"internalType":"bool","name":"claimed","type":"bool"}],"stateMutability":"view","type":"function"},{"inputs":[],"name":"totalRewards","outputs":[{"internalType":"uint256","name":"","type":"uint256"}],"stateMutability":"view","type":"function"}],"evm":{"bytecode":{"linkReferences":{},"object":"60806040526000801b60005560005460015560005460025534801561002357600080fd5b50604051610c14380380610c1483398181016040528101906100459190610086565b506100b3565b600080fd5b6000819050919050565b61006381610050565b811461006e57600080fd5b50565b6000815190506100808161005a565b92915050565b60006020828403121561009c5761009b61004b565b5b60006100aa84828501610071565b91505092915050565b610b52806100c26000396000f3fe608060405234801561001057600080fd5b50600436106100935760003560e01c8063740696f311610066578063740696f314610128578063839758bb146101465780639ea9a31514610162578063beceed391461017e578063d6dc4edc1461019a57610093565b80630700037d146100985780630e15561a146100ce5780631e68be83146100ec578063418f130a1461010a575b600080fd5b6100b260048036038101906100ad91906105fa565b6101b8565b6040516100c597969594939291906106a3565b60405180910390f35b6100d6610261565b6040516100e39190610715565b60405180910390f35b6100f4610267565b6040516101019190610715565b60405180910390f35b61011261026d565b60405161011f919061073f565b60405180910390f35b610130610273565b60405161013d919061073f565b60405180910390f35b610160600480360381019061015b91906107eb565b610279565b005b61017c6004803603810190610177919061089f565b6102e1565b005b61019860048036038101906101939190610906565b6104d6565b005b6101a261058c565b6040516101af919061073f565b60405180910390f35b60056020528060005260406000206000915090508060000160405180604001604052908160008201548152602001600182015481525050908060020160405180604001604052908160008201548152602001600182015481525050908060040160405180604001604052908160008201548152602001600182015481525050908060060154908060070154908060080154908060090160009054906101000a900460ff16905087565b60035481565b60045481565b60025481565b60015481565b6000600560003373ffffffffffffffffffffffffffffffffffffffff1673ffffffffffffffffffffffffffffffffffffffff168152602001908152602001600020905060018160090160006101000a81548160ff021916908315150217905550505050505050565b6000600560008673ffffffffffffffffffffffffffffffffffffffff1673ffffffffffffffffffffffffffffffffffffffff16815260200190815260200160002090506000801b8160000160000154036103ef57604051806040016040528060005481526020018481525081600001600082015181600001556020820151816001015590505060405180604001604052806000548152602001600254815250816002016000820151816000015560208201518160010155905050604051806040016040528060005481526020018581525081600401600082015181600001556020820151816001015590505042816006018190555081816007018190555060045481600801819055506104cf565b8060090160009054906101000a900460ff16610440576040517f08c379a0000000000000000000000000000000000000000000000000000000008152600401610437906109b6565b60405180910390fd5b8060000160010154816000016000018190555082816000016001018190555060008160090160006101000a81548160ff021916908315150217905550806002016001015481600201600001819055506002548160020160010181905550806004016001015481600401600001819055508381600401600101819055504281600601819055508181600701819055505b5050505050565b80600360008282546104e89190610a05565b925050819055506000816003544260025460405160200161050c9493929190610a7b565b60405160208183030381529060405290506000600254905081805190602001206002819055507f51ec8a0d7f598536b4243fabe180be88434bc9334f9bd0efe7199a659910075983600354428460025460405161056d959493929190610ac9565b60405180910390a160006004540361058757426004819055505b505050565b60005481565b600080fd5b600080fd5b600073ffffffffffffffffffffffffffffffffffffffff82169050919050565b60006105c78261059c565b9050919050565b6105d7816105bc565b81146105e257600080fd5b50565b6000813590506105f4816105ce565b92915050565b6000602082840312156106105761060f610592565b5b600061061e848285016105e5565b91505092915050565b6000819050919050565b61063a81610627565b82525050565b6040820160008201516106566000850182610631565b5060208201516106696020850182610631565b50505050565b6000819050919050565b6106828161066f565b82525050565b60008115159050919050565b61069d81610688565b82525050565b6000610140820190506106b9600083018a610640565b6106c66040830189610640565b6106d36080830188610640565b6106e060c0830187610679565b6106ed60e0830186610679565b6106fb610100830185610679565b610709610120830184610694565b98975050505050505050565b600060208201905061072a6000830184610679565b92915050565b61073981610627565b82525050565b60006020820190506107546000830184610730565b92915050565b6107638161066f565b811461076e57600080fd5b50565b6000813590506107808161075a565b92915050565b600080fd5b600080fd5b600080fd5b60008083601f8401126107ab576107aa610786565b5b8235905067ffffffffffffffff8111156107c8576107c761078b565b5b6020830191508360018202830111156107e4576107e3610790565b5b9250929050565b60008060008060006080868803121561080757610806610592565b5b600061081588828901610771565b955050602061082688828901610771565b945050604061083788828901610771565b935050606086013567ffffffffffffffff81111561085857610857610597565b5b61086488828901610795565b92509250509295509295909350565b61087c81610627565b811461088757600080fd5b50565b60008135905061089981610873565b92915050565b600080600080608085870312156108b9576108b8610592565b5b60006108c7878288016105e5565b94505060206108d88782880161088a565b93505060406108e98782880161088a565b92505060606108fa87828801610771565b91505092959194509250565b60006020828403121561091c5761091b610592565b5b600061092a84828501610771565b91505092915050565b600082825260208201905092915050565b7f546865726520697320612070656e64696e672072657761726420636c61696d2060008201527f666f722074686520757365720000000000000000000000000000000000000000602082015250565b60006109a0602c83610933565b91506109ab82610944565b604082019050919050565b600060208201905081810360008301526109cf81610993565b9050919050565b7f4e487b7100000000000000000000000000000000000000000000000000000000600052601160045260246000fd5b6000610a108261066f565b9150610a1b8361066f565b9250828201905080821115610a3357610a326109d6565b5b92915050565b6000819050919050565b610a54610a4f8261066f565b610a39565b82525050565b6000819050919050565b610a75610a7082610627565b610a5a565b82525050565b6000610a878287610a43565b602082019150610a978286610a43565b602082019150610aa78285610a43565b602082019150610ab78284610a64565b60208201915081905095945050505050565b600060a082019050610ade6000830188610679565b610aeb6020830187610679565b610af86040830186610679565b610b056060830185610730565b610b126080830184610730565b969550505050505056fea2646970667358221220f40d815a750c0418fb8d586a358352c446bebdd429945b8ff4898eca292a645c64736f6c63430008180033","opcodes":"PUSH1 0x80 PUSH1 0x40 MSTORE PUSH1 0x0 DUP1 SHL PUSH1 0x0 SSTORE PUSH1 0x0 SLOAD PUSH1 0x1 SSTORE PUSH1 0x0 SLOAD PUSH1 0x2 SSTORE CALLVALUE DUP1 ISZERO PUSH2 0x23 JUMPI PUSH1 0x0 DUP1 REVERT JUMPDEST POP PUSH1 0x40 MLOAD PUSH2 0xC14 CODESIZE SUB DUP1 PUSH2 0xC14 DUP4 CODECOPY DUP2 DUP2 ADD PUSH1 0x40 MSTORE DUP2 ADD SWAP1 PUSH2 0x45 SWAP2 SWAP1 PUSH2 0x86 JUMP JUMPDEST POP PUSH2 0xB3 JUMP JUMPDEST PUSH1 0x0 DUP1 REVERT JUMPDEST PUSH1 0x0 DUP2 SWAP1 POP SWAP2 SWAP1 POP JUMP JUMPDEST PUSH2 0x63 DUP2 PUSH2 0x50 JUMP JUMPDEST DUP2 EQ PUSH2 0x6E JUMPI PUSH1 0x0 DUP1 REVERT JUMPDEST POP JUMP JUMPDEST PUSH1 0x0 DUP2 MLOAD SWAP1 POP PUSH2 0x80 DUP2 PUSH2 0x5A JUMP JUMPDEST SWAP3 SWAP2 POP POP JUMP JUMPDEST PUSH1 0x0 PUSH1 0x20 DUP3 DUP5 SUB SLT ISZERO PUSH2 0x9C JUMPI PUSH2 0x9B PUSH2 0x4B JUMP JUMPDEST JUMPDEST PUSH1 0x0 PUSH2 0xAA DUP5 DUP3 DUP6 ADD PUSH2 0x71 JUMP JUMPDEST SWAP2 POP POP SWAP3 SWAP2 POP POP JUMP JUMPDEST PUSH2 0xB52 DUP1 PUSH2 0xC2 PUSH1 0x0 CODECOPY PUSH1 0x0 RETURN INVALID PUSH1 0x80 PUSH1 0x40 MSTORE CALLVALUE DUP1 ISZERO PUSH2 0x10 JUMPI PUSH1 0x0 DUP1 REVERT JUMPDEST POP PUSH1 0x4 CALLDATASIZE LT PUSH2 0x93 JUMPI PUSH1 0x0 CALLDATALOAD PUSH1 0xE0 SHR DUP1 PUSH4 0x740696F3 GT PUSH2 0x66 JUMPI DUP1 PUSH4 0x740696F3 EQ PUSH2 0x128 JUMPI DUP1 PUSH4 0x839758BB EQ PUSH2 0x146 JUMPI DUP1 PUSH4 0x9EA9A315 EQ PUSH2 0x162 JUMPI DUP1 PUSH4 0xBECEED39 EQ PUSH2 0x17E JUMPI DUP1 PUSH4 0xD6DC4EDC EQ PUSH2 0x19A JUMPI PUSH2 0x93 JUMP JUMPDEST DUP1 PUSH4 0x700037D EQ PUSH2 0x98 JUMPI DUP1 PUSH4 0xE15561A EQ PUSH2 0xCE JUMPI DUP1 PUSH4 0x1E68BE83 EQ PUSH2 0xEC JUMPI DUP1 PUSH4 0x418F130A EQ PUSH2 0x10A JUMPI JUMPDEST PUSH1 0x0 DUP1 REVERT JUMPDEST PUSH2 0xB2 PUSH1 0x4 DUP1 CALLDATASIZE SUB DUP2 ADD SWAP1 PUSH2 0xAD SWAP2 SWAP1 PUSH2 0x5FA JUMP JUMPDEST PUSH2 0x1B8 JUMP JUMPDEST PUSH1 0x40 MLOAD PUSH2 0xC5 SWAP8 SWAP7 SWAP6 SWAP5 SWAP4 SWAP3 SWAP2 SWAP1 PUSH2 0x6A3 JUMP JUMPDEST PUSH1 0x40 MLOAD DUP1 SWAP2 SUB SWAP1 RETURN JUMPDEST PUSH2 0xD6 PUSH2 0x261 JUMP JUMPDEST PUSH1 0x40 MLOAD PUSH2 0xE3 SWAP2 SWAP1 PUSH2 0x715 JUMP JUMPDEST PUSH1 0x40 MLOAD DUP1 SWAP2 SUB SWAP1 RETURN JUMPDEST PUSH2 0xF4 PUSH2 0x267 JUMP JUMPDEST PUSH1 0x40 MLOAD PUSH2 0x101 SWAP2 SWAP1 PUSH2 0x715 JUMP JUMPDEST PUSH1 0x40 MLOAD DUP1 SWAP2 SUB SWAP1 RETURN JUMPDEST PUSH2 0x112 PUSH2 0x26D JUMP JUMPDEST PUSH1 0x40 MLOAD PUSH2 0x11F SWAP2 SWAP1 PUSH2 0x73F JUMP JUMPDEST PUSH1 0x40 MLOAD DUP1 SWAP2 SUB SWAP1 RETURN JUMPDEST PUSH2 0x130 PUSH2 0x273 JUMP JUMPDEST PUSH1 0x40 MLOAD PUSH2 0x13D SWAP2 SWAP1 PUSH2 0x73F JUMP JUMPDEST PUSH1 0x40 MLOAD DUP1 SWAP2 SUB SWAP1 RETURN JUMPDEST PUSH2 0x160 PUSH1 0x4 DUP1 CALLDATASIZE SUB DUP2 ADD SWAP1 PUSH2 0x15B SWAP2 SWAP1 PUSH2 0x7EB JUMP JUMPDEST PUSH2 0x279 JUMP JUMPDEST STOP JUMPDEST PUSH2 0x17C PUSH1 0x4 DUP1 CALLDATASIZE SUB DUP2 ADD SWAP1 PUSH2 0x177 SWAP2 SWAP1 PUSH2 0x89F JUMP JUMPDEST PUSH2 0x2E1 JUMP JUMPDEST STOP JUMPDEST PUSH2 0x198 PUSH1 0x4 DUP1 CALLDATASIZE SUB DUP2 ADD SWAP1 PUSH2 0x193 SWAP2 SWAP1 PUSH2 0x906 JUMP JUMPDEST PUSH2 0x4D6 JUMP JUMPDEST STOP JUMPDEST PUSH2 0x1A2 PUSH2 0x58C JUMP JUMPDEST PUSH1 0x40 MLOAD PUSH2 0x1AF SWAP2 SWAP1 PUSH2 0x73F JUMP JUMPDEST PUSH1 0x40 MLOAD DUP1 SWAP2 SUB SWAP1 RETURN JUMPDEST PUSH1 0x5 PUSH1 0x20 MSTORE DUP1 PUSH1 0x0 MSTORE PUSH1 0x40 PUSH1 0x0 KECCAK256 PUSH1 0x0 SWAP2 POP SWAP1 POP DUP1 PUSH1 0x0 ADD PUSH1 0x40 MLOAD DUP1 PUSH1 0x40 ADD PUSH1 0x40 MSTORE SWAP1 DUP2 PUSH1 0x0 DUP3 ADD SLOAD DUP2 MSTORE PUSH1 0x20 ADD PUSH1 0x1 DUP3 ADD SLOAD DUP2 MSTORE POP POP SWAP1 DUP1 PUSH1 0x2 ADD PUSH1 0x40 MLOAD DUP1 PUSH1 0x40 ADD PUSH1 0x40 MSTORE SWAP1 DUP2 PUSH1 0x0 DUP3 ADD SLOAD DUP2 MSTORE PUSH1 0x20 ADD PUSH1 0x1 DUP3 ADD SLOAD DUP2 MSTORE POP POP SWAP1 DUP1 PUSH1 0x4 ADD PUSH1 0x40 MLOAD DUP1 PUSH1 0x40 ADD PUSH1 0x40 MSTORE SWAP1 DUP2 PUSH1 0x0 DUP3 ADD SLOAD DUP2 MSTORE PUSH1 0x20 ADD PUSH1 0x1 DUP3 ADD SLOAD DUP2 MSTORE POP POP SWAP1 DUP1 PUSH1 0x6 ADD SLOAD SWAP1 DUP1 PUSH1 0x7 ADD SLOAD SWAP1 DUP1 PUSH1 0x8 ADD SLOAD SWAP1 DUP1 PUSH1 0x9 ADD PUSH1 0x0 SWAP1 SLOAD SWAP1 PUSH2 0x100 EXP SWAP1 DIV PUSH1 0xFF AND SWAP1 POP DUP8 JUMP JUMPDEST PUSH1 0x3 SLOAD DUP2 JUMP JUMPDEST PUSH1 0x4 SLOAD DUP2 JUMP JUMPDEST PUSH1 0x2 SLOAD DUP2 JUMP JUMPDEST PUSH1 0x1 SLOAD DUP2 JUMP JUMPDEST PUSH1 0x0 PUSH1 0x5 PUSH1 0x0 CALLER PUSH20 0xFFFFFFFFFFFFFFFFFFFFFFFFFFFFFFFFFFFFFFFF AND PUSH20 0xFFFFFFFFFFFFFFFFFFFFFFFFFFFFFFFFFFFFFFFF AND DUP2 MSTORE PUSH1 0x20 ADD SWAP1 DUP2 MSTORE PUSH1 0x20 ADD PUSH1 0x0 KECCAK256 SWAP1 POP PUSH1 0x1 DUP2 PUSH1 0x9 ADD PUSH1 0x0 PUSH2 0x100 EXP DUP2 SLOAD DUP2 PUSH1 0xFF MUL NOT AND SWAP1 DUP4 ISZERO ISZERO MUL OR SWAP1 SSTORE POP POP POP POP POP POP POP JUMP JUMPDEST PUSH1 0x0 PUSH1 0x5 PUSH1 0x0 DUP7 PUSH20 0xFFFFFFFFFFFFFFFFFFFFFFFFFFFFFFFFFFFFFFFF AND PUSH20 0xFFFFFFFFFFFFFFFFFFFFFFFFFFFFFFFFFFFFFFFF AND DUP2 MSTORE PUSH1 0x20 ADD SWAP1 DUP2 MSTORE PUSH1 0x20 ADD PUSH1 0x0 KECCAK256 SWAP1 POP PUSH1 0x0 DUP1 SHL DUP2 PUSH1 0x0 ADD PUSH1 0x0 ADD SLOAD SUB PUSH2 0x3EF JUMPI PUSH1 0x40 MLOAD DUP1 PUSH1 0x40 ADD PUSH1 0x40 MSTORE DUP1 PUSH1 0x0 SLOAD DUP2 MSTORE PUSH1 0x20 ADD DUP5 DUP2 MSTORE POP DUP2 PUSH1 0x0 ADD PUSH1 0x0 DUP3 ADD MLOAD DUP2 PUSH1 0x0 ADD SSTORE PUSH1 0x20 DUP3 ADD MLOAD DUP2 PUSH1 0x1 ADD SSTORE SWAP1 POP POP PUSH1 0x40 MLOAD DUP1 PUSH1 0x40 ADD PUSH1 0x40 MSTORE DUP1 PUSH1 0x0 SLOAD DUP2 MSTORE PUSH1 0x20 ADD PUSH1 0x2 SLOAD DUP2 MSTORE POP DUP2 PUSH1 0x2 ADD PUSH1 0x0 DUP3 ADD MLOAD DUP2 PUSH1 0x0 ADD SSTORE PUSH1 0x20 DUP3 ADD MLOAD DUP2 PUSH1 0x1 ADD SSTORE SWAP1 POP POP PUSH1 0x40 MLOAD DUP1 PUSH1 0x40 ADD PUSH1 0x40 MSTORE DUP1 PUSH1 0x0 SLOAD DUP2 MSTORE PUSH1 0x20 ADD DUP6 DUP2 MSTORE POP DUP2 PUSH1 0x4 ADD PUSH1 0x0 DUP3 ADD MLOAD DUP2 PUSH1 0x0 ADD SSTORE PUSH1 0x20 DUP3 ADD MLOAD DUP2 PUSH1 0x1 ADD SSTORE SWAP1 POP POP TIMESTAMP DUP2 PUSH1 0x6 ADD DUP2 SWAP1 SSTORE POP DUP2 DUP2 PUSH1 0x7 ADD DUP2 SWAP1 SSTORE POP PUSH1 0x4 SLOAD DUP2 PUSH1 0x8 ADD DUP2 SWAP1 SSTORE POP PUSH2 0x4CF JUMP JUMPDEST DUP1 PUSH1 0x9 ADD PUSH1 0x0 SWAP1 SLOAD SWAP1 PUSH2 0x100 EXP SWAP1 DIV PUSH1 0xFF AND PUSH2 0x440 JUMPI PUSH1 0x40 MLOAD PUSH32 0x8C379A000000000000000000000000000000000000000000000000000000000 DUP2 MSTORE PUSH1 0x4 ADD PUSH2 0x437 SWAP1 PUSH2 0x9B6 JUMP JUMPDEST PUSH1 0x40 MLOAD DUP1 SWAP2 SUB SWAP1 REVERT JUMPDEST DUP1 PUSH1 0x0 ADD PUSH1 0x1 ADD SLOAD DUP2 PUSH1 0x0 ADD PUSH1 0x0 ADD DUP2 SWAP1 SSTORE POP DUP3 DUP2 PUSH1 0x0 ADD PUSH1 0x1 ADD DUP2 SWAP1 SSTORE POP PUSH1 0x0 DUP2 PUSH1 0x9 ADD PUSH1 0x0 PUSH2 0x100 EXP DUP2 SLOAD DUP2 PUSH1 0xFF MUL NOT AND SWAP1 DUP4 ISZERO ISZERO MUL OR SWAP1 SSTORE POP DUP1 PUSH1 0x2 ADD PUSH1 0x1 ADD SLOAD DUP2 PUSH1 0x2 ADD PUSH1 0x0 ADD DUP2 SWAP1 SSTORE POP PUSH1 0x2 SLOAD DUP2 PUSH1 0x2 ADD PUSH1 0x1 ADD DUP2 SWAP1 SSTORE POP DUP1 PUSH1 0x4 ADD PUSH1 0x1 ADD SLOAD DUP2 PUSH1 0x4 ADD PUSH1 0x0 ADD DUP2 SWAP1 SSTORE POP DUP4 DUP2 PUSH1 0x4 ADD PUSH1 0x1 ADD DUP2 SWAP1 SSTORE POP TIMESTAMP DUP2 PUSH1 0x6 ADD DUP2 SWAP1 SSTORE POP DUP2 DUP2 PUSH1 0x7 ADD DUP2 SWAP1 SSTORE POP JUMPDEST POP POP POP POP POP JUMP JUMPDEST DUP1 PUSH1 0x3 PUSH1 0x0 DUP3 DUP3 SLOAD PUSH2 0x4E8 SWAP2 SWAP1 PUSH2 0xA05 JUMP JUMPDEST SWAP3 POP POP DUP2 SWAP1 SSTORE POP PUSH1 0x0 DUP2 PUSH1 0x3 SLOAD TIMESTAMP PUSH1 0x2 SLOAD PUSH1 0x40 MLOAD PUSH1 0x20 ADD PUSH2 0x50C SWAP5 SWAP4 SWAP3 SWAP2 SWAP1 PUSH2 0xA7B JUMP JUMPDEST PUSH1 0x40 MLOAD PUSH1 0x20 DUP2 DUP4 SUB SUB DUP2 MSTORE SWAP1 PUSH1 0x40 MSTORE SWAP1 POP PUSH1 0x0 PUSH1 0x2 SLOAD SWAP1 POP DUP2 DUP1 MLOAD SWAP1 PUSH1 0x20 ADD KECCAK256 PUSH1 0x2 DUP2 SWAP1 SSTORE POP PUSH32 0x51EC8A0D7F598536B4243FABE180BE88434BC9334F9BD0EFE7199A6599100759 DUP4 PUSH1 0x3 SLOAD TIMESTAMP DUP5 PUSH1 0x2 SLOAD PUSH1 0x40 MLOAD PUSH2 0x56D SWAP6 SWAP5 SWAP4 SWAP3 SWAP2 SWAP1 PUSH2 0xAC9 JUMP JUMPDEST PUSH1 0x40 MLOAD DUP1 SWAP2 SUB SWAP1 LOG1 PUSH1 0x0 PUSH1 0x4 SLOAD SUB PUSH2 0x587 JUMPI TIMESTAMP PUSH1 0x4 DUP2 SWAP1 SSTORE POP JUMPDEST POP POP POP JUMP JUMPDEST PUSH1 0x0 SLOAD DUP2 JUMP JUMPDEST PUSH1 0x0 DUP1 REVERT JUMPDEST PUSH1 0x0 DUP1 REVERT JUMPDEST PUSH1 0x0 PUSH20 0xFFFFFFFFFFFFFFFFFFFFFFFFFFFFFFFFFFFFFFFF DUP3 AND SWAP1 POP SWAP2 SWAP1 POP JUMP JUMPDEST PUSH1 0x0 PUSH2 0x5C7 DUP3 PUSH2 0x59C JUMP JUMPDEST SWAP1 POP SWAP2 SWAP1 POP JUMP JUMPDEST PUSH2 0x5D7 DUP2 PUSH2 0x5BC JUMP JUMPDEST DUP2 EQ PUSH2 0x5E2 JUMPI PUSH1 0x0 DUP1 REVERT JUMPDEST POP JUMP JUMPDEST PUSH1 0x0 DUP2 CALLDATALOAD SWAP1 POP PUSH2 0x5F4 DUP2 PUSH2 0x5CE JUMP JUMPDEST SWAP3 SWAP2 POP POP JUMP JUMPDEST PUSH1 0x0 PUSH1 0x20 DUP3 DUP5 SUB SLT ISZERO PUSH2 0x610 JUMPI PUSH2 0x60F PUSH2 0x592 JUMP JUMPDEST JUMPDEST PUSH1 0x0 PUSH2 0x61E DUP5 DUP3 DUP6 ADD PUSH2 0x5E5 JUMP JUMPDEST SWAP2 POP POP SWAP3 SWAP2 POP POP JUMP JUMPDEST PUSH1 0x0 DUP2 SWAP1 POP SWAP2 SWAP1 POP JUMP JUMPDEST PUSH2 0x63A DUP2 PUSH2 0x627 JUMP JUMPDEST DUP3 MSTORE POP POP JUMP JUMPDEST PUSH1 0x40 DUP3 ADD PUSH1 0x0 DUP3 ADD MLOAD PUSH2 0x656 PUSH1 0x0 DUP6 ADD DUP3 PUSH2 0x631 JUMP JUMPDEST POP PUSH1 0x20 DUP3 ADD MLOAD PUSH2 0x669 PUSH1 0x20 DUP6 ADD DUP3 PUSH2 0x631 JUMP JUMPDEST POP POP POP POP JUMP JUMPDEST PUSH1 0x0 DUP2 SWAP1 POP SWAP2 SWAP1 POP JUMP JUMPDEST PUSH2 0x682 DUP2 PUSH2 0x66F JUMP JUMPDEST DUP3 MSTORE POP POP JUMP JUMPDEST PUSH1 0x0 DUP2 ISZERO ISZERO SWAP1 POP SWAP2 SWAP1 POP JUMP JUMPDEST PUSH2 0x69D DUP2 PUSH2 0x688 JUMP JUMPDEST DUP3 MSTORE POP POP JUMP JUMPDEST PUSH1 0x0 PUSH2 0x140 DUP3 ADD SWAP1 POP PUSH2 0x6B9 PUSH1 0x0 DUP4 ADD DUP11 PUSH2 0x640 JUMP JUMPDEST PUSH2 0x6C6 PUSH1 0x40 DUP4 ADD DUP10 PUSH2 0x640 JUMP JUMPDEST PUSH2 0x6D3 PUSH1 0x80 DUP4 ADD DUP9 PUSH2 0x640 JUMP JUMPDEST PUSH2 0x6E0 PUSH1 0xC0 DUP4 ADD DUP8 PUSH2 0x679 JUMP JUMPDEST PUSH2 0x6ED PUSH1 0xE0 DUP4 ADD DUP7 PUSH2 0x679 JUMP JUMPDEST PUSH2 0x6FB PUSH2 0x100 DUP4 ADD DUP6 PUSH2 0x679 JUMP JUMPDEST PUSH2 0x709 PUSH2 0x120 DUP4 ADD DUP5 PUSH2 0x694 JUMP JUMPDEST SWAP9 SWAP8 POP POP POP POP POP POP POP POP JUMP JUMPDEST PUSH1 0x0 PUSH1 0x20 DUP3 ADD SWAP1 POP PUSH2 0x72A PUSH1 0x0 DUP4 ADD DUP5 PUSH2 0x679 JUMP JUMPDEST SWAP3 SWAP2 POP POP JUMP JUMPDEST PUSH2 0x739 DUP2 PUSH2 0x627 JUMP JUMPDEST DUP3 MSTORE POP POP JUMP JUMPDEST PUSH1 0x0 PUSH1 0x20 DUP3 ADD SWAP1 POP PUSH2 0x754 PUSH1 0x0 DUP4 ADD DUP5 PUSH2 0x730 JUMP JUMPDEST SWAP3 SWAP2 POP POP JUMP JUMPDEST PUSH2 0x763 DUP2 PUSH2 0x66F JUMP JUMPDEST DUP2 EQ PUSH2 0x76E JUMPI PUSH1 0x0 DUP1 REVERT JUMPDEST POP JUMP JUMPDEST PUSH1 0x0 DUP2 CALLDATALOAD SWAP1 POP PUSH2 0x780 DUP2 PUSH2 0x75A JUMP JUMPDEST SWAP3 SWAP2 POP POP JUMP JUMPDEST PUSH1 0x0 DUP1 REVERT JUMPDEST PUSH1 0x0 DUP1 REVERT JUMPDEST PUSH1 0x0 DUP1 REVERT JUMPDEST PUSH1 0x0 DUP1 DUP4 PUSH1 0x1F DUP5 ADD SLT PUSH2 0x7AB JUMPI PUSH2 0x7AA PUSH2 0x786 JUMP JUMPDEST JUMPDEST DUP3 CALLDATALOAD SWAP1 POP PUSH8 0xFFFFFFFFFFFFFFFF DUP2 GT ISZERO PUSH2 0x7C8 JUMPI PUSH2 0x7C7 PUSH2 0x78B JUMP JUMPDEST JUMPDEST PUSH1 0x20 DUP4 ADD SWAP2 POP DUP4 PUSH1 0x1 DUP3 MUL DUP4 ADD GT ISZERO PUSH2 0x7E4 JUMPI PUSH2 0x7E3 PUSH2 0x790 JUMP JUMPDEST JUMPDEST SWAP3 POP SWAP3 SWAP1 POP JUMP JUMPDEST PUSH1 0x0 DUP1 PUSH1 0x0 DUP1 PUSH1 0x0 PUSH1 0x80 DUP7 DUP9 SUB SLT ISZERO PUSH2 0x807 JUMPI PUSH2 0x806 PUSH2 0x592 JUMP JUMPDEST JUMPDEST PUSH1 0x0 PUSH2 0x815 DUP9 DUP3 DUP10 ADD PUSH2 0x771 JUMP JUMPDEST SWAP6 POP POP PUSH1 0x20 PUSH2 0x826 DUP9 DUP3 DUP10 ADD PUSH2 0x771 JUMP JUMPDEST SWAP5 POP POP PUSH1 0x40 PUSH2 0x837 DUP9 DUP3 DUP10 ADD PUSH2 0x771 JUMP JUMPDEST SWAP4 POP POP PUSH1 0x60 DUP7 ADD CALLDATALOAD PUSH8 0xFFFFFFFFFFFFFFFF DUP2 GT ISZERO PUSH2 0x858 JUMPI PUSH2 0x857 PUSH2 0x597 JUMP JUMPDEST JUMPDEST PUSH2 0x864 DUP9 DUP3 DUP10 ADD PUSH2 0x795 JUMP JUMPDEST SWAP3 POP SWAP3 POP POP SWAP3 SWAP6 POP SWAP3 SWAP6 SWAP1 SWAP4 POP JUMP JUMPDEST PUSH2 0x87C DUP2 PUSH2 0x627 JUMP JUMPDEST DUP2 EQ PUSH2 0x887 JUMPI PUSH1 0x0 DUP1 REVERT JUMPDEST POP JUMP JUMPDEST PUSH1 0x0 DUP2 CALLDATALOAD SWAP1 POP PUSH2 0x899 DUP2 PUSH2 0x873 JUMP JUMPDEST SWAP3 SWAP2 POP POP JUMP JUMPDEST PUSH1 0x0 DUP1 PUSH1 0x0 DUP1 PUSH1 0x80 DUP6 DUP8 SUB SLT ISZERO PUSH2 0x8B9 JUMPI PUSH2 0x8B8 PUSH2 0x592 JUMP JUMPDEST JUMPDEST PUSH1 0x0 PUSH2 0x8C7 DUP8 DUP3 DUP9 ADD PUSH2 0x5E5 JUMP JUMPDEST SWAP5 POP POP PUSH1 0x20 PUSH2 0x8D8 DUP8 DUP3 DUP9 ADD PUSH2 0x88A JUMP JUMPDEST SWAP4 POP POP PUSH1 0x40 PUSH2 0x8E9 DUP8 DUP3 DUP9 ADD PUSH2 0x88A JUMP JUMPDEST SWAP3 POP POP PUSH1 0x60 PUSH2 0x8FA DUP8 DUP3 DUP9 ADD PUSH2 0x771 JUMP JUMPDEST SWAP2 POP POP SWAP3 SWAP6 SWAP2 SWAP5 POP SWAP3 POP JUMP JUMPDEST PUSH1 0x0 PUSH1 0x20 DUP3 DUP5 SUB SLT ISZERO PUSH2 0x91C JUMPI PUSH2 0x91B PUSH2 0x592 JUMP JUMPDEST JUMPDEST PUSH1 0x0 PUSH2 0x92A DUP5 DUP3 DUP6 ADD PUSH2 0x771 JUMP JUMPDEST SWAP2 POP POP SWAP3 SWAP2 POP POP JUMP JUMPDEST PUSH1 0x0 DUP3 DUP3 MSTORE PUSH1 0x20 DUP3 ADD SWAP1 POP SWAP3 SWAP2 POP POP JUMP JUMPDEST PUSH32 0x546865726520697320612070656E64696E672072657761726420636C61696D20 PUSH1 0x0 DUP3 ADD MSTORE PUSH32 0x666F722074686520757365720000000000000000000000000000000000000000 PUSH1 0x20 DUP3 ADD MSTORE POP JUMP JUMPDEST PUSH1 0x0 PUSH2 0x9A0 PUSH1 0x2C DUP4 PUSH2 0x933 JUMP JUMPDEST SWAP2 POP PUSH2 0x9AB DUP3 PUSH2 0x944 JUMP JUMPDEST PUSH1 0x40 DUP3 ADD SWAP1 POP SWAP2 SWAP1 POP JUMP JUMPDEST PUSH1 0x0 PUSH1 0x20 DUP3 ADD SWAP1 POP DUP2 DUP2 SUB PUSH1 0x0 DUP4 ADD MSTORE PUSH2 0x9CF DUP2 PUSH2 0x993 JUMP JUMPDEST SWAP1 POP SWAP2 SWAP1 POP JUMP JUMPDEST PUSH32 0x4E487B7100000000000000000000000000000000000000000000000000000000 PUSH1 0x0 MSTORE PUSH1 0x11 PUSH1 0x4 MSTORE PUSH1 0x24 PUSH1 0x0 REVERT JUMPDEST PUSH1 0x0 PUSH2 0xA10 DUP3 PUSH2 0x66F JUMP JUMPDEST SWAP2 POP PUSH2 0xA1B DUP4 PUSH2 0x66F JUMP JUMPDEST SWAP3 POP DUP3 DUP3 ADD SWAP1 POP DUP1 DUP3 GT ISZERO PUSH2 0xA33 JUMPI PUSH2 0xA32 PUSH2 0x9D6 JUMP JUMPDEST JUMPDEST SWAP3 SWAP2 POP POP JUMP JUMPDEST PUSH1 0x0 DUP2 SWAP1 POP SWAP2 SWAP1 POP JUMP JUMPDEST PUSH2 0xA54 PUSH2 0xA4F DUP3 PUSH2 0x66F JUMP JUMPDEST PUSH2 0xA39 JUMP JUMPDEST DUP3 MSTORE POP POP JUMP JUMPDEST PUSH1 0x0 DUP2 SWAP1 POP SWAP2 SWAP1 POP JUMP JUMPDEST PUSH2 0xA75 PUSH2 0xA70 DUP3 PUSH2 0x627 JUMP JUMPDEST PUSH2 0xA5A JUMP JUMPDEST DUP3 MSTORE POP POP JUMP JUMPDEST PUSH1 0x0 PUSH2 0xA87 DUP3 DUP8 PUSH2 0xA43 JUMP JUMPDEST PUSH1 0x20 DUP3 ADD SWAP2 POP PUSH2 0xA97 DUP3 DUP7 PUSH2 0xA43 JUMP JUMPDEST PUSH1 0x20 DUP3 ADD SWAP2 POP PUSH2 0xAA7 DUP3 DUP6 PUSH2 0xA43 JUMP JUMPDEST PUSH1 0x20 DUP3 ADD SWAP2 POP PUSH2 0xAB7 DUP3 DUP5 PUSH2 0xA64 JUMP JUMPDEST PUSH1 0x20 DUP3 ADD SWAP2 POP DUP2 SWAP1 POP SWAP6 SWAP5 POP POP POP POP POP JUMP JUMPDEST PUSH1 0x0 PUSH1 0xA0 DUP3 ADD SWAP1 POP PUSH2 0xADE PUSH1 0x0 DUP4 ADD DUP9 PUSH2 0x679 JUMP JUMPDEST PUSH2 0xAEB PUSH1 0x20 DUP4 ADD DUP8 PUSH2 0x679 JUMP JUMPDEST PUSH2 0xAF8 PUSH1 0x40 DUP4 ADD DUP7 PUSH2 0x679 JUMP JUMPDEST PUSH2 0xB05 PUSH1 0x60 DUP4 ADD DUP6 PUSH2 0x730 JUMP JUMPDEST PUSH2 0xB12 PUSH1 0x80 DUP4 ADD DUP5 PUSH2 0x730 JUMP JUMPDEST SWAP7 SWAP6 POP POP POP POP POP POP JUMP INVALID LOG2 PUSH5 0x6970667358 0x22 SLT KECCAK256 DELEGATECALL 0xD DUP2 GAS PUSH22 0xC0418FB8D586A358352C446BEBDD429945B8FF4898E 0xCA 0x29 0x2A PUSH5 0x5C64736F6C PUSH4 0x43000818 STOP CALLER "},"methodIdentifiers":{"NULL_HASH()":"d6dc4edc","addRewards(uint256)":"beceed39","beginningOfStakeChain()":"740696f3","claimRewards(uint256,uint256,uint256,bytes)":"839758bb","currentRewardChain()":"418f130a","relay(address,bytes32,bytes32,uint256)":"9ea9a315","rewardBeginTime()":"1e68be83","rewards(address)":"0700037d","totalRewards()":"0e15561a"}}}}}