{
  "_format": "hh-sol-artifact-1",
  "contractName": "RewardChain",
  "sourceName": "contracts/RewardChain.sol",
  "abi": [
    {
      "inputs": [
        {
          "internalType": "bytes32",
          "name": "startOfStakeChain",
          "type": "bytes32"
        }
      ],
      "stateMutability": "nonpayable",
      "type": "constructor"
    },
    {
      "anonymous": false,
      "inputs": [
        {
          "indexed": false,
          "internalType": "uint256",
          "name": "amount",
          "type": "uint256"
        },
        {
          "indexed": false,
          "internalType": "uint256",
          "name": "totalRewards",
          "type": "uint256"
        },
        {
          "indexed": false,
          "internalType": "uint256",
          "name": "timestamp",
          "type": "uint256"
        },
        {
          "indexed": false,
          "internalType": "bytes32",
          "name": "previousRewardChain",
          "type": "bytes32"
        },
        {
          "indexed": false,
          "internalType": "bytes32",
          "name": "currentRewardChain",
          "type": "bytes32"
        }
      ],
      "name": "RewardsAdded",
      "type": "event"
    },
    {
      "inputs": [],
      "name": "NULL_HASH",
      "outputs": [
        {
          "internalType": "bytes32",
          "name": "",
          "type": "bytes32"
        }
      ],
      "stateMutability": "view",
      "type": "function"
    },
    {
      "inputs": [
        {
          "internalType": "uint256",
          "name": "amount",
          "type": "uint256"
        }
      ],
      "name": "addRewards",
      "outputs": [],
      "stateMutability": "nonpayable",
      "type": "function"
    },
    {
      "inputs": [],
      "name": "beginningOfStakeChain",
      "outputs": [
        {
          "internalType": "bytes32",
          "name": "",
          "type": "bytes32"
        }
      ],
      "stateMutability": "view",
      "type": "function"
    },
    {
      "inputs": [
        {
          "internalType": "uint256",
          "name": "aggregateRewards",
          "type": "uint256"
        },
        {
          "internalType": "uint256",
          "name": "totalUserStake",
          "type": "uint256"
        },
        {
          "internalType": "uint256",
          "name": "totalStake",
          "type": "uint256"
        },
        {
          "internalType": "bytes",
          "name": "proof",
          "type": "bytes"
        }
      ],
      "name": "claimRewards",
      "outputs": [],
      "stateMutability": "nonpayable",
      "type": "function"
    },
    {
      "inputs": [],
      "name": "currentRewardChain",
      "outputs": [
        {
          "internalType": "bytes32",
          "name": "",
          "type": "bytes32"
        }
      ],
      "stateMutability": "view",
      "type": "function"
    },
    {
      "inputs": [
        {
          "internalType": "address",
          "name": "user",
          "type": "address"
        },
        {
          "internalType": "bytes32",
          "name": "userStakeChainSnapshot",
          "type": "bytes32"
        },
        {
          "internalType": "bytes32",
          "name": "currentStakeChainSnapshot",
          "type": "bytes32"
        },
        {
          "internalType": "uint256",
          "name": "stakeSnapshotTime",
          "type": "uint256"
        }
      ],
      "name": "relay",
      "outputs": [],
      "stateMutability": "nonpayable",
      "type": "function"
    },
    {
      "inputs": [],
      "name": "rewardBeginTime",
      "outputs": [
        {
          "internalType": "uint256",
          "name": "",
          "type": "uint256"
        }
      ],
      "stateMutability": "view",
      "type": "function"
    },
    {
      "inputs": [
        {
          "internalType": "address",
          "name": "",
          "type": "address"
        }
      ],
      "name": "rewards",
      "outputs": [
        {
          "components": [
            {
              "internalType": "bytes32",
              "name": "start",
              "type": "bytes32"
            },
            {
              "internalType": "bytes32",
              "name": "end",
              "type": "bytes32"
            }
          ],
          "internalType": "struct RewardChain.HashInterval",
          "name": "stakeInterval",
          "type": "tuple"
        },
        {
          "components": [
            {
              "internalType": "bytes32",
              "name": "start",
              "type": "bytes32"
            },
            {
              "internalType": "bytes32",
              "name": "end",
              "type": "bytes32"
            }
          ],
          "internalType": "struct RewardChain.HashInterval",
          "name": "rewardInterval",
          "type": "tuple"
        },
        {
          "components": [
            {
              "internalType": "bytes32",
              "name": "start",
              "type": "bytes32"
            },
            {
              "internalType": "bytes32",
              "name": "end",
              "type": "bytes32"
            }
          ],
          "internalType": "struct RewardChain.HashInterval",
          "name": "userStakeInterval",
          "type": "tuple"
        },
        {
          "internalType": "uint256",
          "name": "rewardSnapshotTime",
          "type": "uint256"
        },
        {
          "internalType": "uint256",
          "name": "stakeSnapshotTime",
          "type": "uint256"
        },
        {
          "internalType": "uint256",
          "name": "rewardBeginTime",
          "type": "uint256"
        },
        {
          "internalType": "bool",
          "name": "claimed",
          "type": "bool"
        }
      ],
      "stateMutability": "view",
      "type": "function"
    },
    {
      "inputs": [],
      "name": "totalRewards",
      "outputs": [
        {
          "internalType": "uint256",
          "name": "",
          "type": "uint256"
        }
      ],
      "stateMutability": "view",
      "type": "function"
    }
  ],
  "bytecode": "0x60806040526000801b60005560005460015560005460025534801561002357600080fd5b50604051610c14380380610c1483398181016040528101906100459190610086565b506100b3565b600080fd5b6000819050919050565b61006381610050565b811461006e57600080fd5b50565b6000815190506100808161005a565b92915050565b60006020828403121561009c5761009b61004b565b5b60006100aa84828501610071565b91505092915050565b610b52806100c26000396000f3fe608060405234801561001057600080fd5b50600436106100935760003560e01c8063740696f311610066578063740696f314610128578063839758bb146101465780639ea9a31514610162578063beceed391461017e578063d6dc4edc1461019a57610093565b80630700037d146100985780630e15561a146100ce5780631e68be83146100ec578063418f130a1461010a575b600080fd5b6100b260048036038101906100ad91906105fa565b6101b8565b6040516100c597969594939291906106a3565b60405180910390f35b6100d6610261565b6040516100e39190610715565b60405180910390f35b6100f4610267565b6040516101019190610715565b60405180910390f35b61011261026d565b60405161011f919061073f565b60405180910390f35b610130610273565b60405161013d919061073f565b60405180910390f35b610160600480360381019061015b91906107eb565b610279565b005b61017c6004803603810190610177919061089f565b6102e1565b005b61019860048036038101906101939190610906565b6104d6565b005b6101a261058c565b6040516101af919061073f565b60405180910390f35b60056020528060005260406000206000915090508060000160405180604001604052908160008201548152602001600182015481525050908060020160405180604001604052908160008201548152602001600182015481525050908060040160405180604001604052908160008201548152602001600182015481525050908060060154908060070154908060080154908060090160009054906101000a900460ff16905087565b60035481565b60045481565b60025481565b60015481565b6000600560003373ffffffffffffffffffffffffffffffffffffffff1673ffffffffffffffffffffffffffffffffffffffff168152602001908152602001600020905060018160090160006101000a81548160ff021916908315150217905550505050505050565b6000600560008673ffffffffffffffffffffffffffffffffffffffff1673ffffffffffffffffffffffffffffffffffffffff16815260200190815260200160002090506000801b8160000160000154036103ef57604051806040016040528060005481526020018481525081600001600082015181600001556020820151816001015590505060405180604001604052806000548152602001600254815250816002016000820151816000015560208201518160010155905050604051806040016040528060005481526020018581525081600401600082015181600001556020820151816001015590505042816006018190555081816007018190555060045481600801819055506104cf565b8060090160009054906101000a900460ff16610440576040517f08c379a0000000000000000000000000000000000000000000000000000000008152600401610437906109b6565b60405180910390fd5b8060000160010154816000016000018190555082816000016001018190555060008160090160006101000a81548160ff021916908315150217905550806002016001015481600201600001819055506002548160020160010181905550806004016001015481600401600001819055508381600401600101819055504281600601819055508181600701819055505b5050505050565b80600360008282546104e89190610a05565b925050819055506000816003544260025460405160200161050c9493929190610a7b565b60405160208183030381529060405290506000600254905081805190602001206002819055507f51ec8a0d7f598536b4243fabe180be88434bc9334f9bd0efe7199a659910075983600354428460025460405161056d959493929190610ac9565b60405180910390a160006004540361058757426004819055505b505050565b60005481565b600080fd5b600080fd5b600073ffffffffffffffffffffffffffffffffffffffff82169050919050565b60006105c78261059c565b9050919050565b6105d7816105bc565b81146105e257600080fd5b50565b6000813590506105f4816105ce565b92915050565b6000602082840312156106105761060f610592565b5b600061061e848285016105e5565b91505092915050565b6000819050919050565b61063a81610627565b82525050565b6040820160008201516106566000850182610631565b5060208201516106696020850182610631565b50505050565b6000819050919050565b6106828161066f565b82525050565b60008115159050919050565b61069d81610688565b82525050565b6000610140820190506106b9600083018a610640565b6106c66040830189610640565b6106d36080830188610640565b6106e060c0830187610679565b6106ed60e0830186610679565b6106fb610100830185610679565b610709610120830184610694565b98975050505050505050565b600060208201905061072a6000830184610679565b92915050565b61073981610627565b82525050565b60006020820190506107546000830184610730565b92915050565b6107638161066f565b811461076e57600080fd5b50565b6000813590506107808161075a565b92915050565b600080fd5b600080fd5b600080fd5b60008083601f8401126107ab576107aa610786565b5b8235905067ffffffffffffffff8111156107c8576107c761078b565b5b6020830191508360018202830111156107e4576107e3610790565b5b9250929050565b60008060008060006080868803121561080757610806610592565b5b600061081588828901610771565b955050602061082688828901610771565b945050604061083788828901610771565b935050606086013567ffffffffffffffff81111561085857610857610597565b5b61086488828901610795565b92509250509295509295909350565b61087c81610627565b811461088757600080fd5b50565b60008135905061089981610873565b92915050565b600080600080608085870312156108b9576108b8610592565b5b60006108c7878288016105e5565b94505060206108d88782880161088a565b93505060406108e98782880161088a565b92505060606108fa87828801610771565b91505092959194509250565b60006020828403121561091c5761091b610592565b5b600061092a84828501610771565b91505092915050565b600082825260208201905092915050565b7f546865726520697320612070656e64696e672072657761726420636c61696d2060008201527f666f722074686520757365720000000000000000000000000000000000000000602082015250565b60006109a0602c83610933565b91506109ab82610944565b604082019050919050565b600060208201905081810360008301526109cf81610993565b9050919050565b7f4e487b7100000000000000000000000000000000000000000000000000000000600052601160045260246000fd5b6000610a108261066f565b9150610a1b8361066f565b9250828201905080821115610a3357610a326109d6565b5b92915050565b6000819050919050565b610a54610a4f8261066f565b610a39565b82525050565b6000819050919050565b610a75610a7082610627565b610a5a565b82525050565b6000610a878287610a43565b602082019150610a978286610a43565b602082019150610aa78285610a43565b602082019150610ab78284610a64565b60208201915081905095945050505050565b600060a082019050610ade6000830188610679565b610aeb6020830187610679565b610af86040830186610679565b610b056060830185610730565b610b126080830184610730565b969550505050505056fea2646970667358221220f40d815a750c0418fb8d586a358352c446bebdd429945b8ff4898eca292a645c64736f6c63430008180033",
  "linkReferences": {},
  "deployedLinkReferences": {}
}